{
  "address": "0x3aAde2dCD2Df6a8cAc689EE797591b2913658659",
  "abi": [
    {
      "inputs": [
        {
          "internalType": "contract ERC20",
          "name": "_underlying",
          "type": "address"
        },
        {
          "internalType": "string",
          "name": "_name",
          "type": "string"
        },
        {
          "internalType": "string",
          "name": "_symbol",
          "type": "string"
        },
        {
          "internalType": "address",
          "name": "_governance",
          "type": "address"
        },
        {
          "internalType": "address",
          "name": "_controller",
          "type": "address"
        }
      ],
      "stateMutability": "nonpayable",
      "type": "constructor"
    },
    {
      "anonymous": false,
      "inputs": [
        {
          "indexed": true,
          "internalType": "address",
          "name": "owner",
          "type": "address"
        },
        {
          "indexed": true,
          "internalType": "address",
          "name": "spender",
          "type": "address"
        },
        {
          "indexed": false,
          "internalType": "uint256",
          "name": "amount",
          "type": "uint256"
        }
      ],
      "name": "Approval",
      "type": "event"
    },
    {
      "anonymous": false,
      "inputs": [
        {
          "indexed": true,
          "internalType": "address",
          "name": "from",
          "type": "address"
        },
        {
          "indexed": true,
          "internalType": "address",
          "name": "to",
          "type": "address"
        },
        {
          "indexed": false,
          "internalType": "uint256",
          "name": "amount",
          "type": "uint256"
        },
        {
          "indexed": false,
          "internalType": "uint256",
          "name": "shares",
          "type": "uint256"
        }
      ],
      "name": "Deposit",
      "type": "event"
    },
    {
      "anonymous": false,
      "inputs": [
        {
          "indexed": true,
          "internalType": "address",
          "name": "from",
          "type": "address"
        },
        {
          "indexed": true,
          "internalType": "address",
          "name": "to",
          "type": "address"
        },
        {
          "indexed": false,
          "internalType": "uint256",
          "name": "amount",
          "type": "uint256"
        }
      ],
      "name": "Transfer",
      "type": "event"
    },
    {
      "anonymous": false,
      "inputs": [
        {
          "indexed": true,
          "internalType": "address",
          "name": "from",
          "type": "address"
        },
        {
          "indexed": true,
          "internalType": "address",
          "name": "to",
          "type": "address"
        },
        {
          "indexed": false,
          "internalType": "uint256",
          "name": "amount",
          "type": "uint256"
        },
        {
          "indexed": false,
          "internalType": "uint256",
          "name": "shares",
          "type": "uint256"
        }
      ],
      "name": "Withdraw",
      "type": "event"
    },
    {
      "inputs": [],
      "name": "DOMAIN_SEPARATOR",
      "outputs": [
        {
          "internalType": "bytes32",
          "name": "",
          "type": "bytes32"
        }
      ],
      "stateMutability": "view",
      "type": "function"
    },
    {
      "inputs": [],
      "name": "PERMIT_TYPEHASH",
      "outputs": [
        {
          "internalType": "bytes32",
          "name": "",
          "type": "bytes32"
        }
      ],
      "stateMutability": "view",
      "type": "function"
    },
    {
      "inputs": [
        {
          "internalType": "address",
          "name": "",
          "type": "address"
        },
        {
          "internalType": "address",
          "name": "",
          "type": "address"
        }
      ],
      "name": "allowance",
      "outputs": [
        {
          "internalType": "uint256",
          "name": "",
          "type": "uint256"
        }
      ],
      "stateMutability": "view",
      "type": "function"
    },
    {
      "inputs": [
        {
          "internalType": "address",
          "name": "spender",
          "type": "address"
        },
        {
          "internalType": "uint256",
          "name": "amount",
          "type": "uint256"
        }
      ],
      "name": "approve",
      "outputs": [
        {
          "internalType": "bool",
          "name": "",
          "type": "bool"
        }
      ],
      "stateMutability": "nonpayable",
      "type": "function"
    },
    {
      "inputs": [],
      "name": "asset",
      "outputs": [
        {
          "internalType": "contract ERC20",
          "name": "",
          "type": "address"
        }
      ],
      "stateMutability": "view",
      "type": "function"
    },
    {
      "inputs": [
        {
          "internalType": "address",
          "name": "user",
          "type": "address"
        }
      ],
      "name": "assetsOf",
      "outputs": [
        {
          "internalType": "uint256",
          "name": "",
          "type": "uint256"
        }
      ],
      "stateMutability": "view",
      "type": "function"
    },
    {
      "inputs": [],
      "name": "assetsPerShare",
      "outputs": [
        {
          "internalType": "uint256",
          "name": "",
          "type": "uint256"
        }
      ],
      "stateMutability": "view",
      "type": "function"
    },
    {
      "inputs": [
        {
          "internalType": "address",
          "name": "",
          "type": "address"
        }
      ],
      "name": "balanceOf",
      "outputs": [
        {
          "internalType": "uint256",
          "name": "",
          "type": "uint256"
        }
      ],
      "stateMutability": "view",
      "type": "function"
    },
    {
      "inputs": [],
      "name": "controller",
      "outputs": [
        {
          "internalType": "address",
          "name": "",
          "type": "address"
        }
      ],
      "stateMutability": "view",
      "type": "function"
    },
    {
      "inputs": [],
      "name": "decimals",
      "outputs": [
        {
          "internalType": "uint8",
          "name": "",
          "type": "uint8"
        }
      ],
      "stateMutability": "view",
      "type": "function"
    },
    {
      "inputs": [
        {
          "internalType": "uint256",
          "name": "amount",
          "type": "uint256"
        },
        {
          "internalType": "address",
          "name": "to",
          "type": "address"
        }
      ],
      "name": "deposit",
      "outputs": [
        {
          "internalType": "uint256",
          "name": "shares",
          "type": "uint256"
        }
      ],
      "stateMutability": "nonpayable",
      "type": "function"
    },
    {
      "inputs": [],
      "name": "depositAll",
      "outputs": [],
      "stateMutability": "nonpayable",
      "type": "function"
    },
    {
      "inputs": [],
      "name": "earn",
      "outputs": [],
      "stateMutability": "nonpayable",
      "type": "function"
    },
    {
      "inputs": [],
      "name": "freeFloat",
      "outputs": [
        {
          "internalType": "uint256",
          "name": "",
          "type": "uint256"
        }
      ],
      "stateMutability": "view",
      "type": "function"
    },
    {
      "inputs": [],
      "name": "governance",
      "outputs": [
        {
          "internalType": "address",
          "name": "",
          "type": "address"
        }
      ],
      "stateMutability": "view",
      "type": "function"
    },
    {
      "inputs": [
        {
          "internalType": "address",
          "name": "reserve",
          "type": "address"
        },
        {
          "internalType": "uint256",
          "name": "amount",
          "type": "uint256"
        }
      ],
      "name": "harvest",
      "outputs": [],
      "stateMutability": "nonpayable",
      "type": "function"
    },
    {
      "inputs": [],
      "name": "idleFloat",
      "outputs": [
        {
          "internalType": "uint256",
          "name": "",
          "type": "uint256"
        }
      ],
      "stateMutability": "view",
      "type": "function"
    },
    {
      "inputs": [
        {
          "internalType": "address",
          "name": "",
          "type": "address"
        }
      ],
      "name": "maxDeposit",
      "outputs": [
        {
          "internalType": "uint256",
          "name": "",
          "type": "uint256"
        }
      ],
      "stateMutability": "pure",
      "type": "function"
    },
    {
      "inputs": [],
      "name": "maxFloat",
      "outputs": [
        {
          "internalType": "uint256",
          "name": "",
          "type": "uint256"
        }
      ],
      "stateMutability": "view",
      "type": "function"
    },
    {
      "inputs": [
        {
          "internalType": "address",
          "name": "",
          "type": "address"
        }
      ],
      "name": "maxMint",
      "outputs": [
        {
          "internalType": "uint256",
          "name": "",
          "type": "uint256"
        }
      ],
      "stateMutability": "pure",
      "type": "function"
    },
    {
      "inputs": [
        {
          "internalType": "address",
          "name": "user",
          "type": "address"
        }
      ],
      "name": "maxRedeem",
      "outputs": [
        {
          "internalType": "uint256",
          "name": "",
          "type": "uint256"
        }
      ],
      "stateMutability": "view",
      "type": "function"
    },
    {
      "inputs": [
        {
          "internalType": "address",
          "name": "user",
          "type": "address"
        }
      ],
      "name": "maxWithdraw",
      "outputs": [
        {
          "internalType": "uint256",
          "name": "",
          "type": "uint256"
        }
      ],
      "stateMutability": "view",
      "type": "function"
    },
    {
      "inputs": [],
      "name": "minFloat",
      "outputs": [
        {
          "internalType": "uint256",
          "name": "",
          "type": "uint256"
        }
      ],
      "stateMutability": "view",
      "type": "function"
    },
    {
      "inputs": [
        {
          "internalType": "uint256",
          "name": "shares",
          "type": "uint256"
        },
        {
          "internalType": "address",
          "name": "to",
          "type": "address"
        }
      ],
      "name": "mint",
      "outputs": [
        {
          "internalType": "uint256",
          "name": "amount",
          "type": "uint256"
        }
      ],
      "stateMutability": "nonpayable",
      "type": "function"
    },
    {
      "inputs": [],
      "name": "name",
      "outputs": [
        {
          "internalType": "string",
          "name": "",
          "type": "string"
        }
      ],
      "stateMutability": "view",
      "type": "function"
    },
    {
      "inputs": [
        {
          "internalType": "address",
          "name": "",
          "type": "address"
        }
      ],
      "name": "nonces",
      "outputs": [
        {
          "internalType": "uint256",
          "name": "",
          "type": "uint256"
        }
      ],
      "stateMutability": "view",
      "type": "function"
    },
    {
      "inputs": [
        {
          "internalType": "address",
          "name": "owner",
          "type": "address"
        },
        {
          "internalType": "address",
          "name": "spender",
          "type": "address"
        },
        {
          "internalType": "uint256",
          "name": "value",
          "type": "uint256"
        },
        {
          "internalType": "uint256",
          "name": "deadline",
          "type": "uint256"
        },
        {
          "internalType": "uint8",
          "name": "v",
          "type": "uint8"
        },
        {
          "internalType": "bytes32",
          "name": "r",
          "type": "bytes32"
        },
        {
          "internalType": "bytes32",
          "name": "s",
          "type": "bytes32"
        }
      ],
      "name": "permit",
      "outputs": [],
      "stateMutability": "nonpayable",
      "type": "function"
    },
    {
      "inputs": [
        {
          "internalType": "uint256",
          "name": "amount",
          "type": "uint256"
        }
      ],
      "name": "previewDeposit",
      "outputs": [
        {
          "internalType": "uint256",
          "name": "shares",
          "type": "uint256"
        }
      ],
      "stateMutability": "view",
      "type": "function"
    },
    {
      "inputs": [
        {
          "internalType": "uint256",
          "name": "shares",
          "type": "uint256"
        }
      ],
      "name": "previewMint",
      "outputs": [
        {
          "internalType": "uint256",
          "name": "amount",
          "type": "uint256"
        }
      ],
      "stateMutability": "view",
      "type": "function"
    },
    {
      "inputs": [
        {
          "internalType": "uint256",
          "name": "shares",
          "type": "uint256"
        }
      ],
      "name": "previewRedeem",
      "outputs": [
        {
          "internalType": "uint256",
          "name": "amount",
          "type": "uint256"
        }
      ],
      "stateMutability": "view",
      "type": "function"
    },
    {
      "inputs": [
        {
          "internalType": "uint256",
          "name": "amount",
          "type": "uint256"
        }
      ],
      "name": "previewWithdraw",
      "outputs": [
        {
          "internalType": "uint256",
          "name": "shares",
          "type": "uint256"
        }
      ],
      "stateMutability": "view",
      "type": "function"
    },
    {
      "inputs": [
        {
          "internalType": "uint256",
          "name": "shares",
          "type": "uint256"
        },
        {
          "internalType": "address",
          "name": "to",
          "type": "address"
        },
        {
          "internalType": "address",
          "name": "from",
          "type": "address"
        }
      ],
      "name": "redeem",
      "outputs": [
        {
          "internalType": "uint256",
          "name": "amount",
          "type": "uint256"
        }
      ],
      "stateMutability": "nonpayable",
      "type": "function"
    },
    {
      "inputs": [
        {
          "internalType": "address",
          "name": "_controller",
          "type": "address"
        }
      ],
      "name": "setController",
      "outputs": [],
      "stateMutability": "nonpayable",
      "type": "function"
    },
    {
      "inputs": [
        {
          "internalType": "address",
          "name": "_governance",
          "type": "address"
        }
      ],
      "name": "setGovernance",
      "outputs": [],
      "stateMutability": "nonpayable",
      "type": "function"
    },
    {
      "inputs": [
        {
          "internalType": "uint256",
          "name": "_min",
          "type": "uint256"
        }
      ],
      "name": "setMin",
      "outputs": [],
      "stateMutability": "nonpayable",
      "type": "function"
    },
    {
      "inputs": [],
      "name": "symbol",
      "outputs": [
        {
          "internalType": "string",
          "name": "",
          "type": "string"
        }
      ],
      "stateMutability": "view",
      "type": "function"
    },
    {
      "inputs": [],
      "name": "totalAssets",
      "outputs": [
        {
          "internalType": "uint256",
          "name": "",
          "type": "uint256"
        }
      ],
      "stateMutability": "view",
      "type": "function"
    },
    {
      "inputs": [],
      "name": "totalFloat",
      "outputs": [
        {
          "internalType": "uint256",
          "name": "",
          "type": "uint256"
        }
      ],
      "stateMutability": "view",
      "type": "function"
    },
    {
      "inputs": [],
      "name": "totalSupply",
      "outputs": [
        {
          "internalType": "uint256",
          "name": "",
          "type": "uint256"
        }
      ],
      "stateMutability": "view",
      "type": "function"
    },
    {
      "inputs": [
        {
          "internalType": "address",
          "name": "to",
          "type": "address"
        },
        {
          "internalType": "uint256",
          "name": "amount",
          "type": "uint256"
        }
      ],
      "name": "transfer",
      "outputs": [
        {
          "internalType": "bool",
          "name": "",
          "type": "bool"
        }
      ],
      "stateMutability": "nonpayable",
      "type": "function"
    },
    {
      "inputs": [
        {
          "internalType": "address",
          "name": "from",
          "type": "address"
        },
        {
          "internalType": "address",
          "name": "to",
          "type": "address"
        },
        {
          "internalType": "uint256",
          "name": "amount",
          "type": "uint256"
        }
      ],
      "name": "transferFrom",
      "outputs": [
        {
          "internalType": "bool",
          "name": "",
          "type": "bool"
        }
      ],
      "stateMutability": "nonpayable",
      "type": "function"
    },
    {
      "inputs": [
        {
          "internalType": "uint256",
          "name": "amount",
          "type": "uint256"
        },
        {
          "internalType": "address",
          "name": "to",
          "type": "address"
        },
        {
          "internalType": "address",
          "name": "from",
          "type": "address"
        }
      ],
      "name": "withdraw",
      "outputs": [
        {
          "internalType": "uint256",
          "name": "shares",
          "type": "uint256"
        }
      ],
      "stateMutability": "nonpayable",
      "type": "function"
    },
    {
      "inputs": [],
      "name": "withdrawAll",
      "outputs": [],
      "stateMutability": "nonpayable",
      "type": "function"
    }
  ],
  "transactionHash": "0xb3f54583332f101b075beef3dc2175e016b534d39a1dfb9e6ba43afb98df7af8",
  "args": [
    "0x6b175474e89094c44da98b954eedeac495271d0f",
    "Inflation Stable USD Coin",
    "ISUSD",
    "0xf39Fd6e51aad88F6F4ce6aB8827279cffFb92266",
    "0xffa7CA1AEEEbBc30C874d32C7e22F052BbEa0429"
  ],
  "numDeployments": 1,
  "solcInputHash": "36ce4b6ff2345e1b923e0b229b34b65f",
  "bytecode": "0x61010060405261251c6007553480156200001857600080fd5b506040516200420c3803806200420c83398181016040528101906200003e91906200055c565b83838673ffffffffffffffffffffffffffffffffffffffff1663313ce5676040518163ffffffff1660e01b8152600401602060405180830381865afa1580156200008c573d6000803e3d6000fd5b505050506040513d601f19601f82011682018060405250810190620000b2919062000660565b8260009080519060200190620000ca92919062000265565b508160019080519060200190620000e392919062000265565b508060ff1660808160ff16815250504660a081815250506200010a620001d560201b60201c565b60c081815250505050508473ffffffffffffffffffffffffffffffffffffffff1660e08173ffffffffffffffffffffffffffffffffffffffff168152505080600860006101000a81548173ffffffffffffffffffffffffffffffffffffffff021916908373ffffffffffffffffffffffffffffffffffffffff16021790555081600960006101000a81548173ffffffffffffffffffffffffffffffffffffffff021916908373ffffffffffffffffffffffffffffffffffffffff16021790555050505050506200085f565b60007f8b73c3c69bb8fe3d512ecc4cf759cc79239f7b179b0ffacaa9a75d522b39400f6000604051620002099190620007a2565b60405180910390207fc89efdaa54c0f20c7adf612882df0950f5a951637e0307cdcb4c672f298b8bc646306040516020016200024a95949392919062000802565b60405160208183030381529060405280519060200120905090565b8280546200027390620006c1565b90600052602060002090601f016020900481019282620002975760008555620002e3565b82601f10620002b257805160ff1916838001178555620002e3565b82800160010185558215620002e3579182015b82811115620002e2578251825591602001919060010190620002c5565b5b509050620002f29190620002f6565b5090565b5b8082111562000311576000816000905550600101620002f7565b5090565b6000604051905090565b600080fd5b600080fd5b600073ffffffffffffffffffffffffffffffffffffffff82169050919050565b6000620003568262000329565b9050919050565b60006200036a8262000349565b9050919050565b6200037c816200035d565b81146200038857600080fd5b50565b6000815190506200039c8162000371565b92915050565b600080fd5b600080fd5b6000601f19601f8301169050919050565b7f4e487b7100000000000000000000000000000000000000000000000000000000600052604160045260246000fd5b620003f782620003ac565b810181811067ffffffffffffffff82111715620004195762000418620003bd565b5b80604052505050565b60006200042e62000315565b90506200043c8282620003ec565b919050565b600067ffffffffffffffff8211156200045f576200045e620003bd565b5b6200046a82620003ac565b9050602081019050919050565b60005b83811015620004975780820151818401526020810190506200047a565b83811115620004a7576000848401525b50505050565b6000620004c4620004be8462000441565b62000422565b905082815260208101848484011115620004e357620004e2620003a7565b5b620004f084828562000477565b509392505050565b600082601f83011262000510576200050f620003a2565b5b815162000522848260208601620004ad565b91505092915050565b620005368162000349565b81146200054257600080fd5b50565b60008151905062000556816200052b565b92915050565b600080600080600060a086880312156200057b576200057a6200031f565b5b60006200058b888289016200038b565b955050602086015167ffffffffffffffff811115620005af57620005ae62000324565b5b620005bd88828901620004f8565b945050604086015167ffffffffffffffff811115620005e157620005e062000324565b5b620005ef88828901620004f8565b9350506060620006028882890162000545565b9250506080620006158882890162000545565b9150509295509295909350565b600060ff82169050919050565b6200063a8162000622565b81146200064657600080fd5b50565b6000815190506200065a816200062f565b92915050565b6000602082840312156200067957620006786200031f565b5b6000620006898482850162000649565b91505092915050565b7f4e487b7100000000000000000000000000000000000000000000000000000000600052602260045260246000fd5b60006002820490506001821680620006da57607f821691505b60208210811415620006f157620006f062000692565b5b50919050565b600081905092915050565b60008190508160005260206000209050919050565b600081546200072681620006c1565b620007328186620006f7565b94506001821660008114620007505760018114620007625762000799565b60ff1983168652818601935062000799565b6200076d8562000702565b60005b83811015620007915781548189015260018201915060208101905062000770565b838801955050505b50505092915050565b6000620007b0828462000717565b915081905092915050565b6000819050919050565b620007d081620007bb565b82525050565b6000819050919050565b620007eb81620007d6565b82525050565b620007fc8162000349565b82525050565b600060a082019050620008196000830188620007c5565b620008286020830187620007c5565b620008376040830186620007c5565b620008466060830185620007e0565b620008556080830184620007f1565b9695505050505050565b60805160a05160c05160e05161391f620008ed6000396000818161091a01528181610a8e01528181611062015281816112b1015281816114c4015281816119f001528181611cb001528181611d4601528181611e45015281816122290152818161233d01526126d10152600061103b01526000611007015260008181610fa50152610fce015261391f6000f3fe608060405234801561001057600080fd5b50600436106102695760003560e01c8063841219e511610151578063ce96cb77116100c3578063de5f626811610087578063de5f6268146107d6578063ea8846a9146107e0578063ef8b30f7146107fe578063f0f5b4411461082e578063f77c47911461084c578063f82750341461086a57610269565b8063ce96cb7714610720578063d389800f14610750578063d505accf1461075a578063d905777e14610776578063dd62ed3e146107a657610269565b8063a9059cbb11610115578063a9059cbb14610614578063ab033ea914610644578063b3d7f6b914610660578063b460af9414610690578063ba087652146106c0578063c63d75b6146106f057610269565b8063841219e514610582578063853828b6146105a057806392eefe9b146105aa57806394bf804d146105c657806395d89b41146105f657610269565b806335d16e17116101ea5780634cdad506116101ae5780634cdad506146104865780635aa6e675146104b65780636254f728146104d45780636e553f65146104f257806370a08231146105225780637ecebe001461055257610269565b806335d16e17146103e05780633644e515146103fe57806338d52e0f1461041c578063402d267d1461043a57806345dc3dd81461046a57610269565b806318160ddd1161023157806318160ddd1461032657806323b872dd146103445780632c62fa101461037457806330adf81f146103a4578063313ce567146103c257610269565b8063018ee9b71461026e57806301e1d1141461028a57806306fdde03146102a8578063095ea7b3146102c65780630a28a477146102f6575b600080fd5b6102886004803603810190610283919061299c565b610888565b005b610292610a4c565b60405161029f91906129eb565b60405180910390f35b6102b0610b21565b6040516102bd9190612a9f565b60405180910390f35b6102e060048036038101906102db919061299c565b610baf565b6040516102ed9190612adc565b60405180910390f35b610310600480360381019061030b9190612af7565b610ca1565b60405161031d91906129eb565b60405180910390f35b61032e610cde565b60405161033b91906129eb565b60405180910390f35b61035e60048036038101906103599190612b24565b610ce4565b60405161036b9190612adc565b60405180910390f35b61038e60048036038101906103899190612b77565b610f2e565b60405161039b91906129eb565b60405180910390f35b6103ac610f7f565b6040516103b99190612bbd565b60405180910390f35b6103ca610fa3565b6040516103d79190612bf4565b60405180910390f35b6103e8610fc7565b6040516103f591906129eb565b60405180910390f35b610406611003565b6040516104139190612bbd565b60405180910390f35b610424611060565b6040516104319190612c6e565b60405180910390f35b610454600480360381019061044f9190612b77565b611084565b60405161046191906129eb565b60405180910390f35b610484600480360381019061047f9190612af7565b6110ae565b005b6104a0600480360381019061049b9190612af7565b611148565b6040516104ad91906129eb565b60405180910390f35b6104be611185565b6040516104cb9190612c98565b60405180910390f35b6104dc6111ab565b6040516104e991906129eb565b60405180910390f35b61050c60048036038101906105079190612cb3565b6111cf565b60405161051991906129eb565b60405180910390f35b61053c60048036038101906105379190612b77565b611305565b60405161054991906129eb565b60405180910390f35b61056c60048036038101906105679190612b77565b61131d565b60405161057991906129eb565b60405180910390f35b61058a611335565b60405161059791906129eb565b60405180910390f35b6105a861133b565b005b6105c460048036038101906105bf9190612b77565b611351565b005b6105e060048036038101906105db9190612cb3565b611425565b6040516105ed91906129eb565b60405180910390f35b6105fe611518565b60405161060b9190612a9f565b60405180910390f35b61062e6004803603810190610629919061299c565b6115a6565b60405161063b9190612adc565b60405180910390f35b61065e60048036038101906106599190612b77565b6116ba565b005b61067a60048036038101906106759190612af7565b61178e565b60405161068791906129eb565b60405180910390f35b6106aa60048036038101906106a59190612cf3565b6117cb565b6040516106b791906129eb565b60405180910390f35b6106da60048036038101906106d59190612cf3565b611a3c565b6040516106e791906129eb565b60405180910390f35b61070a60048036038101906107059190612b77565b611cfc565b60405161071791906129eb565b60405180910390f35b61073a60048036038101906107359190612b77565b611d26565b60405161074791906129eb565b60405180910390f35b610758611d38565b005b610774600480360381019061076f9190612d9e565b611eb7565b005b610790600480360381019061078b9190612b77565b6121b6565b60405161079d91906129eb565b60405180910390f35b6107c060048036038101906107bb9190612e40565b6121ff565b6040516107cd91906129eb565b60405180910390f35b6107de612224565b005b6107e86122ca565b6040516107f591906129eb565b60405180910390f35b61081860048036038101906108139190612af7565b6122d0565b60405161082591906129eb565b60405180910390f35b61083661230d565b60405161084391906129eb565b60405180910390f35b610854612313565b6040516108619190612c98565b60405180910390f35b610872612339565b60405161087f91906129eb565b60405180910390f35b600860009054906101000a900473ffffffffffffffffffffffffffffffffffffffff1673ffffffffffffffffffffffffffffffffffffffff163373ffffffffffffffffffffffffffffffffffffffff1614610918576040517f08c379a000000000000000000000000000000000000000000000000000000000815260040161090f90612ecc565b60405180910390fd5b7f000000000000000000000000000000000000000000000000000000000000000073ffffffffffffffffffffffffffffffffffffffff168273ffffffffffffffffffffffffffffffffffffffff1614156109a7576040517f08c379a000000000000000000000000000000000000000000000000000000000815260040161099e90612f38565b60405180910390fd5b8173ffffffffffffffffffffffffffffffffffffffff1663a9059cbb600860009054906101000a900473ffffffffffffffffffffffffffffffffffffffff16836040518363ffffffff1660e01b8152600401610a04929190612f58565b6020604051808303816000875af1158015610a23573d6000803e3d6000fd5b505050506040513d601f19601f82011682018060405250810190610a479190612fad565b505050565b6000600860009054906101000a900473ffffffffffffffffffffffffffffffffffffffff1673ffffffffffffffffffffffffffffffffffffffff166370a082317f00000000000000000000000000000000000000000000000000000000000000006040518263ffffffff1660e01b8152600401610ac99190612c98565b602060405180830381865afa158015610ae6573d6000803e3d6000fd5b505050506040513d601f19601f82011682018060405250810190610b0a9190612fef565b610b12612339565b610b1c919061304b565b905090565b60008054610b2e906130d0565b80601f0160208091040260200160405190810160405280929190818152602001828054610b5a906130d0565b8015610ba75780601f10610b7c57610100808354040283529160200191610ba7565b820191906000526020600020905b815481529060010190602001808311610b8a57829003601f168201915b505050505081565b600081600460003373ffffffffffffffffffffffffffffffffffffffff1673ffffffffffffffffffffffffffffffffffffffff16815260200190815260200160002060008573ffffffffffffffffffffffffffffffffffffffff1673ffffffffffffffffffffffffffffffffffffffff168152602001908152602001600020819055508273ffffffffffffffffffffffffffffffffffffffff163373ffffffffffffffffffffffffffffffffffffffff167f8c5be1e5ebec7d5bd14f71427d1e84f3dd0314c0f7b2291e5b200ac8c7c3b92584604051610c8f91906129eb565b60405180910390a36001905092915050565b600080600254905060008114610cd457610ccf600254610cbf610a4c565b856123da9092919063ffffffff16565b610cd6565b825b915050919050565b60025481565b600080600460008673ffffffffffffffffffffffffffffffffffffffff1673ffffffffffffffffffffffffffffffffffffffff16815260200190815260200160002060003373ffffffffffffffffffffffffffffffffffffffff1673ffffffffffffffffffffffffffffffffffffffff1681526020019081526020016000205490507fffffffffffffffffffffffffffffffffffffffffffffffffffffffffffffffff8114610e1a578281610d999190613102565b600460008773ffffffffffffffffffffffffffffffffffffffff1673ffffffffffffffffffffffffffffffffffffffff16815260200190815260200160002060003373ffffffffffffffffffffffffffffffffffffffff1673ffffffffffffffffffffffffffffffffffffffff168152602001908152602001600020819055505b82600360008773ffffffffffffffffffffffffffffffffffffffff1673ffffffffffffffffffffffffffffffffffffffff1681526020019081526020016000206000828254610e699190613102565b9250508190555082600360008673ffffffffffffffffffffffffffffffffffffffff1673ffffffffffffffffffffffffffffffffffffffff168152602001908152602001600020600082825401925050819055508373ffffffffffffffffffffffffffffffffffffffff168573ffffffffffffffffffffffffffffffffffffffff167fddf252ad1be2c89b69c2b068fc378daa952ba7f163c4a11628f55a4df523b3ef85604051610f1a91906129eb565b60405180910390a360019150509392505050565b6000610f78600360008473ffffffffffffffffffffffffffffffffffffffff1673ffffffffffffffffffffffffffffffffffffffff16815260200190815260200160002054611148565b9050919050565b7f6e71edae12b1b97f4d1f60370fef10105fa2faae0126114a169c64845d6126c981565b7f000000000000000000000000000000000000000000000000000000000000000081565b6000610ffe7f0000000000000000000000000000000000000000000000000000000000000000600a610ff99190613269565b611148565b905090565b60007f000000000000000000000000000000000000000000000000000000000000000046146110395761103461240c565b61105b565b7f00000000000000000000000000000000000000000000000000000000000000005b905090565b7f000000000000000000000000000000000000000000000000000000000000000081565b60007fffffffffffffffffffffffffffffffffffffffffffffffffffffffffffffffff9050919050565b600960009054906101000a900473ffffffffffffffffffffffffffffffffffffffff1673ffffffffffffffffffffffffffffffffffffffff163373ffffffffffffffffffffffffffffffffffffffff161461113e576040517f08c379a000000000000000000000000000000000000000000000000000000000815260040161113590613300565b60405180910390fd5b8060078190555050565b60008060025490506000811461117b57611176611163610a4c565b600254856124989092919063ffffffff16565b61117d565b825b915050919050565b600960009054906101000a900473ffffffffffffffffffffffffffffffffffffffff1681565b60006127106007546006546111c09190613320565b6111ca91906133a9565b905090565b6000806111db846122d0565b915081141561121f576040517f08c379a000000000000000000000000000000000000000000000000000000000815260040161121690613426565b60405180910390fd5b61122982826124c0565b826006600082825461123b919061304b565b925050819055508173ffffffffffffffffffffffffffffffffffffffff163373ffffffffffffffffffffffffffffffffffffffff167fdcbc1c05240f31ff3ad067ef1ee35ce4997762752e3a095284754544f4c709d785846040516112a1929190613446565b60405180910390a36112f63330857f000000000000000000000000000000000000000000000000000000000000000073ffffffffffffffffffffffffffffffffffffffff16612590909392919063ffffffff16565b6112ff83612653565b92915050565b60036020528060005260406000206000915090505481565b60056020528060005260406000206000915090505481565b60065481565b61134e61134733610f2e565b33336117cb565b50565b600960009054906101000a900473ffffffffffffffffffffffffffffffffffffffff1673ffffffffffffffffffffffffffffffffffffffff163373ffffffffffffffffffffffffffffffffffffffff16146113e1576040517f08c379a00000000000000000000000000000000000000000000000000000000081526004016113d890613300565b60405180910390fd5b80600860006101000a81548173ffffffffffffffffffffffffffffffffffffffff021916908373ffffffffffffffffffffffffffffffffffffffff16021790555050565b600061143c826114348561178e565b9250826124c0565b806006600082825461144e919061304b565b925050819055508173ffffffffffffffffffffffffffffffffffffffff163373ffffffffffffffffffffffffffffffffffffffff167fdcbc1c05240f31ff3ad067ef1ee35ce4997762752e3a095284754544f4c709d783866040516114b4929190613446565b60405180910390a36115093330837f000000000000000000000000000000000000000000000000000000000000000073ffffffffffffffffffffffffffffffffffffffff16612590909392919063ffffffff16565b61151281612653565b92915050565b60018054611525906130d0565b80601f0160208091040260200160405190810160405280929190818152602001828054611551906130d0565b801561159e5780601f106115735761010080835404028352916020019161159e565b820191906000526020600020905b81548152906001019060200180831161158157829003601f168201915b505050505081565b600081600360003373ffffffffffffffffffffffffffffffffffffffff1673ffffffffffffffffffffffffffffffffffffffff16815260200190815260200160002060008282546115f79190613102565b9250508190555081600360008573ffffffffffffffffffffffffffffffffffffffff1673ffffffffffffffffffffffffffffffffffffffff168152602001908152602001600020600082825401925050819055508273ffffffffffffffffffffffffffffffffffffffff163373ffffffffffffffffffffffffffffffffffffffff167fddf252ad1be2c89b69c2b068fc378daa952ba7f163c4a11628f55a4df523b3ef846040516116a891906129eb565b60405180910390a36001905092915050565b600960009054906101000a900473ffffffffffffffffffffffffffffffffffffffff1673ffffffffffffffffffffffffffffffffffffffff163373ffffffffffffffffffffffffffffffffffffffff161461174a576040517f08c379a000000000000000000000000000000000000000000000000000000000815260040161174190613300565b60405180910390fd5b80600960006101000a81548173ffffffffffffffffffffffffffffffffffffffff021916908373ffffffffffffffffffffffffffffffffffffffff16021790555050565b6000806002549050600081146117c1576117bc6117a9610a4c565b600254856123da9092919063ffffffff16565b6117c3565b825b915050919050565b600080600460008473ffffffffffffffffffffffffffffffffffffffff1673ffffffffffffffffffffffffffffffffffffffff16815260200190815260200160002060003373ffffffffffffffffffffffffffffffffffffffff1673ffffffffffffffffffffffffffffffffffffffff1681526020019081526020016000205490508273ffffffffffffffffffffffffffffffffffffffff163373ffffffffffffffffffffffffffffffffffffffff16141580156118a957507fffffffffffffffffffffffffffffffffffffffffffffffffffffffffffffffff8114155b1561193b5781816118ba9190613102565b600460008573ffffffffffffffffffffffffffffffffffffffff1673ffffffffffffffffffffffffffffffffffffffff16815260200190815260200160002060003373ffffffffffffffffffffffffffffffffffffffff1673ffffffffffffffffffffffffffffffffffffffff168152602001908152602001600020819055505b611943612339565b8511156119545761195385612656565b5b6119698361196187610ca1565b935083612744565b846006600082825461197b9190613102565b925050819055508373ffffffffffffffffffffffffffffffffffffffff168373ffffffffffffffffffffffffffffffffffffffff167ff341246adaac6f497bc2a656f546ab9e182111d630394f0c57c710a59a2cb56787856040516119e1929190613446565b60405180910390a3611a3484867f000000000000000000000000000000000000000000000000000000000000000073ffffffffffffffffffffffffffffffffffffffff166128149092919063ffffffff16565b509392505050565b600080600460008473ffffffffffffffffffffffffffffffffffffffff1673ffffffffffffffffffffffffffffffffffffffff16815260200190815260200160002060003373ffffffffffffffffffffffffffffffffffffffff1673ffffffffffffffffffffffffffffffffffffffff1681526020019081526020016000205490508273ffffffffffffffffffffffffffffffffffffffff163373ffffffffffffffffffffffffffffffffffffffff1614158015611b1a57507fffffffffffffffffffffffffffffffffffffffffffffffffffffffffffffffff8114155b15611bac578481611b2b9190613102565b600460008573ffffffffffffffffffffffffffffffffffffffff1673ffffffffffffffffffffffffffffffffffffffff16815260200190815260200160002060003373ffffffffffffffffffffffffffffffffffffffff1673ffffffffffffffffffffffffffffffffffffffff168152602001908152602001600020819055505b6000611bb786611148565b9250821415611bfb576040517f08c379a0000000000000000000000000000000000000000000000000000000008152600401611bf2906134bb565b60405180910390fd5b611c03612339565b851115611c1457611c1385612656565b5b611c1d85611148565b9150611c298386612744565b8160066000828254611c3b9190613102565b925050819055508373ffffffffffffffffffffffffffffffffffffffff168373ffffffffffffffffffffffffffffffffffffffff167ff341246adaac6f497bc2a656f546ab9e182111d630394f0c57c710a59a2cb5678488604051611ca1929190613446565b60405180910390a3611cf484837f000000000000000000000000000000000000000000000000000000000000000073ffffffffffffffffffffffffffffffffffffffff166128149092919063ffffffff16565b509392505050565b60007fffffffffffffffffffffffffffffffffffffffffffffffffffffffffffffffff9050919050565b6000611d3182610f2e565b9050919050565b6000611d426111ab565b90507f000000000000000000000000000000000000000000000000000000000000000073ffffffffffffffffffffffffffffffffffffffff1663a9059cbb600860009054906101000a900473ffffffffffffffffffffffffffffffffffffffff16836040518363ffffffff1660e01b8152600401611dc1929190612f58565b6020604051808303816000875af1158015611de0573d6000803e3d6000fd5b505050506040513d601f19601f82011682018060405250810190611e049190612fad565b50600860009054906101000a900473ffffffffffffffffffffffffffffffffffffffff1673ffffffffffffffffffffffffffffffffffffffff1663b02bf4b97f0000000000000000000000000000000000000000000000000000000000000000836040518363ffffffff1660e01b8152600401611e82929190612f58565b600060405180830381600087803b158015611e9c57600080fd5b505af1158015611eb0573d6000803e3d6000fd5b5050505050565b42841015611efa576040517f08c379a0000000000000000000000000000000000000000000000000000000008152600401611ef190613527565b60405180910390fd5b6000611f04611003565b7f6e71edae12b1b97f4d1f60370fef10105fa2faae0126114a169c64845d6126c9898989600560008e73ffffffffffffffffffffffffffffffffffffffff1673ffffffffffffffffffffffffffffffffffffffff1681526020019081526020016000206000815480929190600101919050558a604051602001611f8c96959493929190613547565b60405160208183030381529060405280519060200120604051602001611fb3929190613620565b604051602081830303815290604052805190602001209050600060018286868660405160008152602001604052604051611ff09493929190613657565b6020604051602081039080840390855afa158015612012573d6000803e3d6000fd5b505050602060405103519050600073ffffffffffffffffffffffffffffffffffffffff168173ffffffffffffffffffffffffffffffffffffffff161415801561208657508873ffffffffffffffffffffffffffffffffffffffff168173ffffffffffffffffffffffffffffffffffffffff16145b6120c5576040517f08c379a00000000000000000000000000000000000000000000000000000000081526004016120bc906136e8565b60405180910390fd5b86600460008373ffffffffffffffffffffffffffffffffffffffff1673ffffffffffffffffffffffffffffffffffffffff16815260200190815260200160002060008a73ffffffffffffffffffffffffffffffffffffffff1673ffffffffffffffffffffffffffffffffffffffff1681526020019081526020016000208190555050508573ffffffffffffffffffffffffffffffffffffffff168773ffffffffffffffffffffffffffffffffffffffff167f8c5be1e5ebec7d5bd14f71427d1e84f3dd0314c0f7b2291e5b200ac8c7c3b925876040516121a591906129eb565b60405180910390a350505050505050565b6000600360008373ffffffffffffffffffffffffffffffffffffffff1673ffffffffffffffffffffffffffffffffffffffff168152602001908152602001600020549050919050565b6004602052816000526040600020602052806000526040600020600091509150505481565b6122c77f000000000000000000000000000000000000000000000000000000000000000073ffffffffffffffffffffffffffffffffffffffff166370a08231336040518263ffffffff1660e01b81526004016122809190612c98565b602060405180830381865afa15801561229d573d6000803e3d6000fd5b505050506040513d601f19601f820116820180604052508101906122c19190612fef565b336111cf565b50565b61271081565b600080600254905060008114612303576122fe6002546122ee610a4c565b856124989092919063ffffffff16565b612305565b825b915050919050565b60075481565b600860009054906101000a900473ffffffffffffffffffffffffffffffffffffffff1681565b60007f000000000000000000000000000000000000000000000000000000000000000073ffffffffffffffffffffffffffffffffffffffff166370a08231306040518263ffffffff1660e01b81526004016123949190612c98565b602060405180830381865afa1580156123b1573d6000803e3d6000fd5b505050506040513d601f19601f820116820180604052508101906123d59190612fef565b905090565b600082840290508284820414841517821515166123f657600080fd5b6001826001830304018115150290509392505050565b60007f8b73c3c69bb8fe3d512ecc4cf759cc79239f7b179b0ffacaa9a75d522b39400f600060405161243e91906137a7565b60405180910390207fc89efdaa54c0f20c7adf612882df0950f5a951637e0307cdcb4c672f298b8bc6463060405160200161247d9594939291906137be565b60405160208183030381529060405280519060200120905090565b600082840290508284820414841517821515166124b457600080fd5b81810490509392505050565b80600260008282546124d2919061304b565b9250508190555080600360008473ffffffffffffffffffffffffffffffffffffffff1673ffffffffffffffffffffffffffffffffffffffff168152602001908152602001600020600082825401925050819055508173ffffffffffffffffffffffffffffffffffffffff16600073ffffffffffffffffffffffffffffffffffffffff167fddf252ad1be2c89b69c2b068fc378daa952ba7f163c4a11628f55a4df523b3ef8360405161258491906129eb565b60405180910390a35050565b60006040517f23b872dd00000000000000000000000000000000000000000000000000000000815273ffffffffffffffffffffffffffffffffffffffff8516600482015273ffffffffffffffffffffffffffffffffffffffff8416602482015282604482015260008060648360008a5af191505061260d816128ba565b61264c576040517f08c379a00000000000000000000000000000000000000000000000000000000081526004016126439061385d565b60405180910390fd5b5050505050565b50565b6000612660612339565b6127106032846126709190613320565b61267a91906133a9565b83612685919061304b565b61268f9190613102565b9050600860009054906101000a900473ffffffffffffffffffffffffffffffffffffffff1673ffffffffffffffffffffffffffffffffffffffff1663f3fef3a37f0000000000000000000000000000000000000000000000000000000000000000836040518363ffffffff1660e01b815260040161270e929190612f58565b600060405180830381600087803b15801561272857600080fd5b505af115801561273c573d6000803e3d6000fd5b505050505050565b80600360008473ffffffffffffffffffffffffffffffffffffffff1673ffffffffffffffffffffffffffffffffffffffff16815260200190815260200160002060008282546127939190613102565b9250508190555080600260008282540392505081905550600073ffffffffffffffffffffffffffffffffffffffff168273ffffffffffffffffffffffffffffffffffffffff167fddf252ad1be2c89b69c2b068fc378daa952ba7f163c4a11628f55a4df523b3ef8360405161280891906129eb565b60405180910390a35050565b60006040517fa9059cbb00000000000000000000000000000000000000000000000000000000815273ffffffffffffffffffffffffffffffffffffffff841660048201528260248201526000806044836000895af1915050612875816128ba565b6128b4576040517f08c379a00000000000000000000000000000000000000000000000000000000081526004016128ab906138c9565b60405180910390fd5b50505050565b60003d826128cc57806000803e806000fd5b80602081146128e657600081146128f757600092506128fc565b816000803e600051151592506128fc565b600192505b5050919050565b600080fd5b600073ffffffffffffffffffffffffffffffffffffffff82169050919050565b600061293382612908565b9050919050565b61294381612928565b811461294e57600080fd5b50565b6000813590506129608161293a565b92915050565b6000819050919050565b61297981612966565b811461298457600080fd5b50565b60008135905061299681612970565b92915050565b600080604083850312156129b3576129b2612903565b5b60006129c185828601612951565b92505060206129d285828601612987565b9150509250929050565b6129e581612966565b82525050565b6000602082019050612a0060008301846129dc565b92915050565b600081519050919050565b600082825260208201905092915050565b60005b83811015612a40578082015181840152602081019050612a25565b83811115612a4f576000848401525b50505050565b6000601f19601f8301169050919050565b6000612a7182612a06565b612a7b8185612a11565b9350612a8b818560208601612a22565b612a9481612a55565b840191505092915050565b60006020820190508181036000830152612ab98184612a66565b905092915050565b60008115159050919050565b612ad681612ac1565b82525050565b6000602082019050612af16000830184612acd565b92915050565b600060208284031215612b0d57612b0c612903565b5b6000612b1b84828501612987565b91505092915050565b600080600060608486031215612b3d57612b3c612903565b5b6000612b4b86828701612951565b9350506020612b5c86828701612951565b9250506040612b6d86828701612987565b9150509250925092565b600060208284031215612b8d57612b8c612903565b5b6000612b9b84828501612951565b91505092915050565b6000819050919050565b612bb781612ba4565b82525050565b6000602082019050612bd26000830184612bae565b92915050565b600060ff82169050919050565b612bee81612bd8565b82525050565b6000602082019050612c096000830184612be5565b92915050565b6000819050919050565b6000612c34612c2f612c2a84612908565b612c0f565b612908565b9050919050565b6000612c4682612c19565b9050919050565b6000612c5882612c3b565b9050919050565b612c6881612c4d565b82525050565b6000602082019050612c836000830184612c5f565b92915050565b612c9281612928565b82525050565b6000602082019050612cad6000830184612c89565b92915050565b60008060408385031215612cca57612cc9612903565b5b6000612cd885828601612987565b9250506020612ce985828601612951565b9150509250929050565b600080600060608486031215612d0c57612d0b612903565b5b6000612d1a86828701612987565b9350506020612d2b86828701612951565b9250506040612d3c86828701612951565b9150509250925092565b612d4f81612bd8565b8114612d5a57600080fd5b50565b600081359050612d6c81612d46565b92915050565b612d7b81612ba4565b8114612d8657600080fd5b50565b600081359050612d9881612d72565b92915050565b600080600080600080600060e0888a031215612dbd57612dbc612903565b5b6000612dcb8a828b01612951565b9750506020612ddc8a828b01612951565b9650506040612ded8a828b01612987565b9550506060612dfe8a828b01612987565b9450506080612e0f8a828b01612d5d565b93505060a0612e208a828b01612d89565b92505060c0612e318a828b01612d89565b91505092959891949750929550565b60008060408385031215612e5757612e56612903565b5b6000612e6585828601612951565b9250506020612e7685828601612951565b9150509250929050565b7f21636f6e74726f6c6c6572000000000000000000000000000000000000000000600082015250565b6000612eb6600b83612a11565b9150612ec182612e80565b602082019050919050565b60006020820190508181036000830152612ee581612ea9565b9050919050565b7f746f6b656e000000000000000000000000000000000000000000000000000000600082015250565b6000612f22600583612a11565b9150612f2d82612eec565b602082019050919050565b60006020820190508181036000830152612f5181612f15565b9050919050565b6000604082019050612f6d6000830185612c89565b612f7a60208301846129dc565b9392505050565b612f8a81612ac1565b8114612f9557600080fd5b50565b600081519050612fa781612f81565b92915050565b600060208284031215612fc357612fc2612903565b5b6000612fd184828501612f98565b91505092915050565b600081519050612fe981612970565b92915050565b60006020828403121561300557613004612903565b5b600061301384828501612fda565b91505092915050565b7f4e487b7100000000000000000000000000000000000000000000000000000000600052601160045260246000fd5b600061305682612966565b915061306183612966565b9250827fffffffffffffffffffffffffffffffffffffffffffffffffffffffffffffffff038211156130965761309561301c565b5b828201905092915050565b7f4e487b7100000000000000000000000000000000000000000000000000000000600052602260045260246000fd5b600060028204905060018216806130e857607f821691505b602082108114156130fc576130fb6130a1565b5b50919050565b600061310d82612966565b915061311883612966565b92508282101561312b5761312a61301c565b5b828203905092915050565b60008160011c9050919050565b6000808291508390505b600185111561318d578086048111156131695761316861301c565b5b60018516156131785780820291505b808102905061318685613136565b945061314d565b94509492505050565b6000826131a65760019050613262565b816131b45760009050613262565b81600181146131ca57600281146131d457613203565b6001915050613262565b60ff8411156131e6576131e561301c565b5b8360020a9150848211156131fd576131fc61301c565b5b50613262565b5060208310610133831016604e8410600b84101617156132385782820a9050838111156132335761323261301c565b5b613262565b6132458484846001613143565b9250905081840481111561325c5761325b61301c565b5b81810290505b9392505050565b600061327482612966565b915061327f83612bd8565b92506132ac7fffffffffffffffffffffffffffffffffffffffffffffffffffffffffffffffff8484613196565b905092915050565b7f21676f7665726e616e6365000000000000000000000000000000000000000000600082015250565b60006132ea600b83612a11565b91506132f5826132b4565b602082019050919050565b60006020820190508181036000830152613319816132dd565b9050919050565b600061332b82612966565b915061333683612966565b9250817fffffffffffffffffffffffffffffffffffffffffffffffffffffffffffffffff048311821515161561336f5761336e61301c565b5b828202905092915050565b7f4e487b7100000000000000000000000000000000000000000000000000000000600052601260045260246000fd5b60006133b482612966565b91506133bf83612966565b9250826133cf576133ce61337a565b5b828204905092915050565b7f5a45524f5f534841524553000000000000000000000000000000000000000000600082015250565b6000613410600b83612a11565b915061341b826133da565b602082019050919050565b6000602082019050818103600083015261343f81613403565b9050919050565b600060408201905061345b60008301856129dc565b61346860208301846129dc565b9392505050565b7f5a45524f5f415353455453000000000000000000000000000000000000000000600082015250565b60006134a5600b83612a11565b91506134b08261346f565b602082019050919050565b600060208201905081810360008301526134d481613498565b9050919050565b7f5045524d49545f444541444c494e455f45585049524544000000000000000000600082015250565b6000613511601783612a11565b915061351c826134db565b602082019050919050565b6000602082019050818103600083015261354081613504565b9050919050565b600060c08201905061355c6000830189612bae565b6135696020830188612c89565b6135766040830187612c89565b61358360608301866129dc565b61359060808301856129dc565b61359d60a08301846129dc565b979650505050505050565b600081905092915050565b7f1901000000000000000000000000000000000000000000000000000000000000600082015250565b60006135e96002836135a8565b91506135f4826135b3565b600282019050919050565b6000819050919050565b61361a61361582612ba4565b6135ff565b82525050565b600061362b826135dc565b91506136378285613609565b6020820191506136478284613609565b6020820191508190509392505050565b600060808201905061366c6000830187612bae565b6136796020830186612be5565b6136866040830185612bae565b6136936060830184612bae565b95945050505050565b7f494e56414c49445f5349474e4552000000000000000000000000000000000000600082015250565b60006136d2600e83612a11565b91506136dd8261369c565b602082019050919050565b60006020820190508181036000830152613701816136c5565b9050919050565b600081905092915050565b60008190508160005260206000209050919050565b60008154613735816130d0565b61373f8186613708565b9450600182166000811461375a576001811461376b5761379e565b60ff1983168652818601935061379e565b61377485613713565b60005b8381101561379657815481890152600182019150602081019050613777565b838801955050505b50505092915050565b60006137b38284613728565b915081905092915050565b600060a0820190506137d36000830188612bae565b6137e06020830187612bae565b6137ed6040830186612bae565b6137fa60608301856129dc565b6138076080830184612c89565b9695505050505050565b7f5452414e534645525f46524f4d5f4641494c4544000000000000000000000000600082015250565b6000613847601483612a11565b915061385282613811565b602082019050919050565b600060208201905081810360008301526138768161383a565b9050919050565b7f5452414e534645525f4641494c45440000000000000000000000000000000000600082015250565b60006138b3600f83612a11565b91506138be8261387d565b602082019050919050565b600060208201905081810360008301526138e2816138a6565b905091905056fea264697066735822122087a97ca80165ac8e610d115d448b937d03bbf8f5a791f6f4923faed50f7c9a4564736f6c634300080b0033",
  "devdoc": {
    "kind": "dev",
    "methods": {
      "freeFloat()": {
        "details": "Remember, totalFloat returns ALL shares supply, even if underlying is locked outside of Vault."
      }
    },
    "version": 1
  },
  "userdoc": {
    "kind": "user",
    "methods": {
      "earn()": {
        "notice": "Transfer any available and not limited by cap funds to Controller (=>Strategy)."
      },
      "freeFloat()": {
        "notice": "Available to move to strategy. Leave some tokens idle."
      },
      "idleFloat()": {
        "notice": "Idle funds in Vault, i.e deposits before earn()"
      },
      "maxDeposit(address)": {
        "notice": "Optional. Left empty here. (No limit)"
      },
      "maxMint(address)": {
        "notice": "Optional. Left empty here. (No limit)"
      },
      "totalAssets()": {
        "notice": "Sum of idle funds and funds deployed to Strategy."
      }
    },
    "version": 1
  },
  "storageLayout": {
    "storage": [
      {
        "astId": 20,
        "contract": "contracts/yearn-v2/Vault.sol:Vault",
        "label": "name",
        "offset": 0,
        "slot": "0",
        "type": "t_string_storage"
      },
      {
        "astId": 22,
        "contract": "contracts/yearn-v2/Vault.sol:Vault",
        "label": "symbol",
        "offset": 0,
        "slot": "1",
        "type": "t_string_storage"
      },
      {
        "astId": 26,
        "contract": "contracts/yearn-v2/Vault.sol:Vault",
        "label": "totalSupply",
        "offset": 0,
        "slot": "2",
        "type": "t_uint256"
      },
      {
        "astId": 30,
        "contract": "contracts/yearn-v2/Vault.sol:Vault",
        "label": "balanceOf",
        "offset": 0,
        "slot": "3",
        "type": "t_mapping(t_address,t_uint256)"
      },
      {
        "astId": 36,
        "contract": "contracts/yearn-v2/Vault.sol:Vault",
        "label": "allowance",
        "offset": 0,
        "slot": "4",
        "type": "t_mapping(t_address,t_mapping(t_address,t_uint256))"
      },
      {
        "astId": 49,
        "contract": "contracts/yearn-v2/Vault.sol:Vault",
        "label": "nonces",
        "offset": 0,
        "slot": "5",
        "type": "t_mapping(t_address,t_uint256)"
      },
      {
        "astId": 2059,
        "contract": "contracts/yearn-v2/Vault.sol:Vault",
        "label": "totalFloat",
        "offset": 0,
        "slot": "6",
        "type": "t_uint256"
      },
      {
        "astId": 2062,
        "contract": "contracts/yearn-v2/Vault.sol:Vault",
        "label": "minFloat",
        "offset": 0,
        "slot": "7",
        "type": "t_uint256"
      },
      {
        "astId": 2067,
        "contract": "contracts/yearn-v2/Vault.sol:Vault",
        "label": "controller",
        "offset": 0,
        "slot": "8",
        "type": "t_address"
      },
      {
        "astId": 2069,
        "contract": "contracts/yearn-v2/Vault.sol:Vault",
        "label": "governance",
        "offset": 0,
        "slot": "9",
        "type": "t_address"
      }
    ],
    "types": {
      "t_address": {
        "encoding": "inplace",
        "label": "address",
        "numberOfBytes": "20"
      },
      "t_mapping(t_address,t_mapping(t_address,t_uint256))": {
        "encoding": "mapping",
        "key": "t_address",
        "label": "mapping(address => mapping(address => uint256))",
        "numberOfBytes": "32",
        "value": "t_mapping(t_address,t_uint256)"
      },
      "t_mapping(t_address,t_uint256)": {
        "encoding": "mapping",
        "key": "t_address",
        "label": "mapping(address => uint256)",
        "numberOfBytes": "32",
        "value": "t_uint256"
      },
      "t_string_storage": {
        "encoding": "bytes",
        "label": "string",
        "numberOfBytes": "32"
      },
      "t_uint256": {
        "encoding": "inplace",
        "label": "uint256",
        "numberOfBytes": "32"
      }
    }
  }
}